{
  "contractName": "SkillVerification",
  "abi": [
    {
      "inputs": [],
      "stateMutability": "nonpayable",
      "type": "constructor"
    },
    {
      "anonymous": false,
      "inputs": [
        {
          "indexed": true,
          "internalType": "address",
          "name": "employee",
          "type": "address"
        },
        {
          "indexed": false,
          "internalType": "string",
          "name": "certificationHash",
          "type": "string"
        },
        {
          "indexed": true,
          "internalType": "address",
          "name": "requester",
          "type": "address"
        }
      ],
      "name": "VerificationRequested",
      "type": "event"
    },
    {
      "inputs": [],
      "name": "admin",
      "outputs": [
        {
          "internalType": "address",
          "name": "",
          "type": "address"
        }
      ],
      "stateMutability": "view",
      "type": "function"
    },
    {
      "inputs": [
        {
          "internalType": "address",
          "name": "",
          "type": "address"
        }
      ],
      "name": "employeeRequests",
      "outputs": [
        {
          "internalType": "string",
          "name": "name",
          "type": "string"
        },
        {
          "internalType": "uint256",
          "name": "overallRating",
          "type": "uint256"
        },
        {
          "internalType": "bool",
          "name": "isPending",
          "type": "bool"
        }
      ],
      "stateMutability": "view",
      "type": "function"
    },
    {
      "inputs": [
        {
          "internalType": "address",
          "name": "",
          "type": "address"
        }
      ],
      "name": "employees",
      "outputs": [
        {
          "internalType": "string",
          "name": "name",
          "type": "string"
        },
        {
          "internalType": "uint256",
          "name": "overallRating",
          "type": "uint256"
        }
      ],
      "stateMutability": "view",
      "type": "function"
    },
    {
      "inputs": [
        {
          "internalType": "string",
          "name": "_name",
          "type": "string"
        },
        {
          "internalType": "uint256",
          "name": "_overallRating",
          "type": "uint256"
        }
      ],
      "name": "requestAddEmployee",
      "outputs": [],
      "stateMutability": "nonpayable",
      "type": "function"
    },
    {
      "inputs": [
        {
          "internalType": "address",
          "name": "_employeeAddress",
          "type": "address"
        }
      ],
      "name": "confirmAddEmployee",
      "outputs": [],
      "stateMutability": "nonpayable",
      "type": "function"
    },
    {
      "inputs": [
        {
          "internalType": "string",
          "name": "_certificationName",
          "type": "string"
        },
        {
          "internalType": "string",
          "name": "_ipfsHash",
          "type": "string"
        }
      ],
      "name": "addCertification",
      "outputs": [],
      "stateMutability": "nonpayable",
      "type": "function"
    },
    {
      "inputs": [
        {
          "internalType": "address",
          "name": "employeeAddress",
          "type": "address"
        },
        {
          "internalType": "string",
          "name": "certificationHash",
          "type": "string"
        }
      ],
      "name": "requestVerification",
      "outputs": [],
      "stateMutability": "nonpayable",
      "type": "function"
    },
    {
      "inputs": [
        {
          "internalType": "address",
          "name": "requester",
          "type": "address"
        },
        {
          "internalType": "string",
          "name": "certificationHash",
          "type": "string"
        }
      ],
      "name": "confirmVerification",
      "outputs": [],
      "stateMutability": "nonpayable",
      "type": "function"
    },
    {
      "inputs": [
        {
          "internalType": "address",
          "name": "employeeAddress",
          "type": "address"
        },
        {
          "internalType": "string",
          "name": "certificationHash",
          "type": "string"
        }
      ],
      "name": "verifyCertificationByHash",
      "outputs": [
        {
          "internalType": "bool",
          "name": "",
          "type": "bool"
        }
      ],
      "stateMutability": "view",
      "type": "function"
    },
    {
      "inputs": [
        {
          "internalType": "address",
          "name": "_employeeAddress",
          "type": "address"
        }
      ],
      "name": "getCertifications",
      "outputs": [
        {
          "components": [
            {
              "internalType": "string",
              "name": "name",
              "type": "string"
            },
            {
              "internalType": "bool",
              "name": "isVerified",
              "type": "bool"
            },
            {
              "internalType": "string",
              "name": "ipfsHash",
              "type": "string"
            }
          ],
          "internalType": "struct SkillVerification.Certification[]",
          "name": "",
          "type": "tuple[]"
        }
      ],
      "stateMutability": "view",
      "type": "function"
    },
    {
      "inputs": [
        {
          "internalType": "address",
          "name": "_employeeAddress",
          "type": "address"
        }
      ],
      "name": "getEmployeeRequest",
      "outputs": [
        {
          "components": [
            {
              "internalType": "string",
              "name": "name",
              "type": "string"
            },
            {
              "internalType": "uint256",
              "name": "overallRating",
              "type": "uint256"
            },
            {
              "internalType": "bool",
              "name": "isPending",
              "type": "bool"
            }
          ],
          "internalType": "struct SkillVerification.EmployeeRequest",
          "name": "",
          "type": "tuple"
        }
      ],
      "stateMutability": "view",
      "type": "function"
    },
    {
      "inputs": [
        {
          "internalType": "address",
          "name": "employeeAddress",
          "type": "address"
        },
        {
          "internalType": "string",
          "name": "certificationHash",
          "type": "string"
        }
      ],
      "name": "getVerificationStatus",
      "outputs": [
        {
          "internalType": "bool",
          "name": "",
          "type": "bool"
        }
      ],
      "stateMutability": "view",
      "type": "function"
    }
  ],
  "bytecode": "0x608060405234801561001057600080fd5b5033600260006101000a81548173ffffffffffffffffffffffffffffffffffffffff021916908373ffffffffffffffffffffffffffffffffffffffff160217905550612205806100616000396000f3fe608060405234801561001057600080fd5b50600436106100b45760003560e01c806393a4c5dc1161007157806393a4c5dc146101b3578063a179d1c2146101cf578063b8795251146101eb578063d067894714610207578063dfeb3de114610238578063f851a44014610268576100b4565b80630e66848d146100b95780632ffb5f65146100eb5780634c4f0f23146101075780635437cc2814610123578063677cc2911461015357806368521a0414610183575b600080fd5b6100d360048036038101906100ce9190611682565b610286565b6040516100e29392919061177c565b60405180910390f35b6101056004803603810190610100919061191b565b610345565b005b610121600480360381019061011c9190611977565b610477565b005b61013d600480360381019061013891906119ef565b6105ef565b60405161014a9190611a4b565b60405180910390f35b61016d60048036038101906101689190611682565b61088f565b60405161017a9190611bd8565b60405180910390f35b61019d600480360381019061019891906119ef565b610a6e565b6040516101aa9190611a4b565b60405180910390f35b6101cd60048036038101906101c891906119ef565b610d0e565b005b6101e960048036038101906101e491906119ef565b610f8c565b005b61020560048036038101906102009190611682565b61108c565b005b610221600480360381019061021c9190611682565b611368565b60405161022f929190611bfa565b60405180910390f35b610252600480360381019061024d9190611682565b611414565b60405161025f9190611c89565b60405180910390f35b610270611524565b60405161027d9190611cba565b60405180910390f35b60016020528060005260406000206000915090508060000180546102a990611d04565b80601f01602080910402602001604051908101604052809291908181526020018280546102d590611d04565b80156103225780601f106102f757610100808354040283529160200191610322565b820191906000526020600020905b81548152906001019060200180831161030557829003601f168201915b5050505050908060010154908060020160009054906101000a900460ff16905083565b6000825111610389576040517f08c379a000000000000000000000000000000000000000000000000000000000815260040161038090611d81565b60405180910390fd5b600081116103cc576040517f08c379a00000000000000000000000000000000000000000000000000000000081526004016103c390611ded565b60405180910390fd5b604051806060016040528083815260200182815260200160011515815250600160003373ffffffffffffffffffffffffffffffffffffffff1673ffffffffffffffffffffffffffffffffffffffff168152602001908152602001600020600082015181600001908051906020019061044592919061154a565b506020820151816001015560408201518160020160006101000a81548160ff0219169083151502179055509050505050565b60008060003373ffffffffffffffffffffffffffffffffffffffff1673ffffffffffffffffffffffffffffffffffffffff16815260200190815260200160002060000180546104c590611d04565b905011610507576040517f08c379a00000000000000000000000000000000000000000000000000000000081526004016104fe90611e59565b60405180910390fd5b6000803373ffffffffffffffffffffffffffffffffffffffff1673ffffffffffffffffffffffffffffffffffffffff168152602001908152602001600020600201604051806060016040528084815260200160001515815260200183815250908060018154018082558091505060019003906000526020600020906003020160009091909190915060008201518160000190805190602001906105ab92919061154a565b5060208201518160010160006101000a81548160ff02191690831515021790555060408201518160020190805190602001906105e892919061154a565b5050505050565b6000806000808573ffffffffffffffffffffffffffffffffffffffff1673ffffffffffffffffffffffffffffffffffffffff168152602001908152602001600020600201805480602002602001604051908101604052809291908181526020016000905b828210156107c4578382906000526020600020906003020160405180606001604052908160008201805461068690611d04565b80601f01602080910402602001604051908101604052809291908181526020018280546106b290611d04565b80156106ff5780601f106106d4576101008083540402835291602001916106ff565b820191906000526020600020905b8154815290600101906020018083116106e257829003601f168201915b505050505081526020016001820160009054906101000a900460ff1615151515815260200160028201805461073390611d04565b80601f016020809104026020016040519081016040528092919081815260200182805461075f90611d04565b80156107ac5780601f10610781576101008083540402835291602001916107ac565b820191906000526020600020905b81548152906001019060200180831161078f57829003601f168201915b50505050508152505081526020019060010190610653565b50505050905060005b815181101561088257836040516020016107e79190611eb5565b604051602081830303815290604052805190602001208282815181106108105761080f611ecc565b5b60200260200101516040015160405160200161082c9190611eb5565b604051602081830303815290604052805190602001200361086f5781818151811061085a57610859611ecc565b5b60200260200101516020015192505050610889565b808061087a90611f2a565b9150506107cd565b5060009150505b92915050565b60606000808373ffffffffffffffffffffffffffffffffffffffff1673ffffffffffffffffffffffffffffffffffffffff168152602001908152602001600020600201805480602002602001604051908101604052809291908181526020016000905b82821015610a63578382906000526020600020906003020160405180606001604052908160008201805461092590611d04565b80601f016020809104026020016040519081016040528092919081815260200182805461095190611d04565b801561099e5780601f106109735761010080835404028352916020019161099e565b820191906000526020600020905b81548152906001019060200180831161098157829003601f168201915b505050505081526020016001820160009054906101000a900460ff161515151581526020016002820180546109d290611d04565b80601f01602080910402602001604051908101604052809291908181526020018280546109fe90611d04565b8015610a4b5780601f10610a2057610100808354040283529160200191610a4b565b820191906000526020600020905b815481529060010190602001808311610a2e57829003601f168201915b505050505081525050815260200190600101906108f2565b505050509050919050565b6000806000808573ffffffffffffffffffffffffffffffffffffffff1673ffffffffffffffffffffffffffffffffffffffff168152602001908152602001600020600201805480602002602001604051908101604052809291908181526020016000905b82821015610c435783829060005260206000209060030201604051806060016040529081600082018054610b0590611d04565b80601f0160208091040260200160405190810160405280929190818152602001828054610b3190611d04565b8015610b7e5780601f10610b5357610100808354040283529160200191610b7e565b820191906000526020600020905b815481529060010190602001808311610b6157829003601f168201915b505050505081526020016001820160009054906101000a900460ff16151515158152602001600282018054610bb290611d04565b80601f0160208091040260200160405190810160405280929190818152602001828054610bde90611d04565b8015610c2b5780601f10610c0057610100808354040283529160200191610c2b565b820191906000526020600020905b815481529060010190602001808311610c0e57829003601f168201915b50505050508152505081526020019060010190610ad2565b50505050905060005b8151811015610d015783604051602001610c669190611eb5565b60405160208183030381529060405280519060200120828281518110610c8f57610c8e611ecc565b5b602002602001015160400151604051602001610cab9190611eb5565b6040516020818303038152906040528051906020012003610cee57818181518110610cd957610cd8611ecc565b5b60200260200101516020015192505050610d08565b8080610cf990611f2a565b915050610c4c565b5060009150505b92915050565b6000803373ffffffffffffffffffffffffffffffffffffffff1673ffffffffffffffffffffffffffffffffffffffff16815260200190815260200160002060030160008373ffffffffffffffffffffffffffffffffffffffff1673ffffffffffffffffffffffffffffffffffffffff16815260200190815260200160002060009054906101000a900460ff16610dd9576040517f08c379a0000000000000000000000000000000000000000000000000000000008152600401610dd090611fe4565b60405180910390fd5b60008060003373ffffffffffffffffffffffffffffffffffffffff1673ffffffffffffffffffffffffffffffffffffffff168152602001908152602001600020600201905060005b8180549050811015610ef85782604051602001610e3e9190611eb5565b60405160208183030381529060405280519060200120828281548110610e6757610e66611ecc565b5b9060005260206000209060030201600201604051602001610e889190612098565b6040516020818303038152906040528051906020012003610ee5576001828281548110610eb857610eb7611ecc565b5b906000526020600020906003020160010160006101000a81548160ff021916908315150217905550610ef8565b8080610ef090611f2a565b915050610e21565b506000803373ffffffffffffffffffffffffffffffffffffffff1673ffffffffffffffffffffffffffffffffffffffff16815260200190815260200160002060030160008473ffffffffffffffffffffffffffffffffffffffff1673ffffffffffffffffffffffffffffffffffffffff16815260200190815260200160002060006101000a81549060ff0219169055505050565b60016000808473ffffffffffffffffffffffffffffffffffffffff1673ffffffffffffffffffffffffffffffffffffffff16815260200190815260200160002060030160003373ffffffffffffffffffffffffffffffffffffffff1673ffffffffffffffffffffffffffffffffffffffff16815260200190815260200160002060006101000a81548160ff0219169083151502179055503373ffffffffffffffffffffffffffffffffffffffff168273ffffffffffffffffffffffffffffffffffffffff167f9e65fe05b6ea51f0d4c2f34496841abde4e91e754ddc32af350405fabb2fe4a18360405161108091906120af565b60405180910390a35050565b600260009054906101000a900473ffffffffffffffffffffffffffffffffffffffff1673ffffffffffffffffffffffffffffffffffffffff163373ffffffffffffffffffffffffffffffffffffffff161461111c576040517f08c379a000000000000000000000000000000000000000000000000000000000815260040161111390612143565b60405180910390fd5b6000600160008373ffffffffffffffffffffffffffffffffffffffff1673ffffffffffffffffffffffffffffffffffffffff16815260200190815260200160002060405180606001604052908160008201805461117890611d04565b80601f01602080910402602001604051908101604052809291908181526020018280546111a490611d04565b80156111f15780601f106111c6576101008083540402835291602001916111f1565b820191906000526020600020905b8154815290600101906020018083116111d457829003601f168201915b50505050508152602001600182015481526020016002820160009054906101000a900460ff16151515158152505090508060400151611265576040517f08c379a000000000000000000000000000000000000000000000000000000000815260040161125c906121af565b60405180910390fd5b80600001516000808473ffffffffffffffffffffffffffffffffffffffff1673ffffffffffffffffffffffffffffffffffffffff16815260200190815260200160002060000190805190602001906112be92919061154a565b5080602001516000808473ffffffffffffffffffffffffffffffffffffffff1673ffffffffffffffffffffffffffffffffffffffff168152602001908152602001600020600101819055506000600160008473ffffffffffffffffffffffffffffffffffffffff1673ffffffffffffffffffffffffffffffffffffffff16815260200190815260200160002060020160006101000a81548160ff0219169083151502179055505050565b600060205280600052604060002060009150905080600001805461138b90611d04565b80601f01602080910402602001604051908101604052809291908181526020018280546113b790611d04565b80156114045780601f106113d957610100808354040283529160200191611404565b820191906000526020600020905b8154815290600101906020018083116113e757829003601f168201915b5050505050908060010154905082565b61141c6115d0565b600160008373ffffffffffffffffffffffffffffffffffffffff1673ffffffffffffffffffffffffffffffffffffffff16815260200190815260200160002060405180606001604052908160008201805461147690611d04565b80601f01602080910402602001604051908101604052809291908181526020018280546114a290611d04565b80156114ef5780601f106114c4576101008083540402835291602001916114ef565b820191906000526020600020905b8154815290600101906020018083116114d257829003601f168201915b50505050508152602001600182015481526020016002820160009054906101000a900460ff1615151515815250509050919050565b600260009054906101000a900473ffffffffffffffffffffffffffffffffffffffff1681565b82805461155690611d04565b90600052602060002090601f01602090048101928261157857600085556115bf565b82601f1061159157805160ff19168380011785556115bf565b828001600101855582156115bf579182015b828111156115be5782518255916020019190600101906115a3565b5b5090506115cc91906115f3565b5090565b604051806060016040528060608152602001600081526020016000151581525090565b5b8082111561160c5760008160009055506001016115f4565b5090565b6000604051905090565b600080fd5b600080fd5b600073ffffffffffffffffffffffffffffffffffffffff82169050919050565b600061164f82611624565b9050919050565b61165f81611644565b811461166a57600080fd5b50565b60008135905061167c81611656565b92915050565b6000602082840312156116985761169761161a565b5b60006116a68482850161166d565b91505092915050565b600081519050919050565b600082825260208201905092915050565b60005b838110156116e95780820151818401526020810190506116ce565b838111156116f8576000848401525b50505050565b6000601f19601f8301169050919050565b600061171a826116af565b61172481856116ba565b93506117348185602086016116cb565b61173d816116fe565b840191505092915050565b6000819050919050565b61175b81611748565b82525050565b60008115159050919050565b61177681611761565b82525050565b60006060820190508181036000830152611796818661170f565b90506117a56020830185611752565b6117b2604083018461176d565b949350505050565b600080fd5b600080fd5b7f4e487b7100000000000000000000000000000000000000000000000000000000600052604160045260246000fd5b6117fc826116fe565b810181811067ffffffffffffffff8211171561181b5761181a6117c4565b5b80604052505050565b600061182e611610565b905061183a82826117f3565b919050565b600067ffffffffffffffff82111561185a576118596117c4565b5b611863826116fe565b9050602081019050919050565b82818337600083830152505050565b600061189261188d8461183f565b611824565b9050828152602081018484840111156118ae576118ad6117bf565b5b6118b9848285611870565b509392505050565b600082601f8301126118d6576118d56117ba565b5b81356118e684826020860161187f565b91505092915050565b6118f881611748565b811461190357600080fd5b50565b600081359050611915816118ef565b92915050565b600080604083850312156119325761193161161a565b5b600083013567ffffffffffffffff8111156119505761194f61161f565b5b61195c858286016118c1565b925050602061196d85828601611906565b9150509250929050565b6000806040838503121561198e5761198d61161a565b5b600083013567ffffffffffffffff8111156119ac576119ab61161f565b5b6119b8858286016118c1565b925050602083013567ffffffffffffffff8111156119d9576119d861161f565b5b6119e5858286016118c1565b9150509250929050565b60008060408385031215611a0657611a0561161a565b5b6000611a148582860161166d565b925050602083013567ffffffffffffffff811115611a3557611a3461161f565b5b611a41858286016118c1565b9150509250929050565b6000602082019050611a60600083018461176d565b92915050565b600081519050919050565b600082825260208201905092915050565b6000819050602082019050919050565b600082825260208201905092915050565b6000611aae826116af565b611ab88185611a92565b9350611ac88185602086016116cb565b611ad1816116fe565b840191505092915050565b611ae581611761565b82525050565b60006060830160008301518482036000860152611b088282611aa3565b9150506020830151611b1d6020860182611adc565b5060408301518482036040860152611b358282611aa3565b9150508091505092915050565b6000611b4e8383611aeb565b905092915050565b6000602082019050919050565b6000611b6e82611a66565b611b788185611a71565b935083602082028501611b8a85611a82565b8060005b85811015611bc65784840389528151611ba78582611b42565b9450611bb283611b56565b925060208a01995050600181019050611b8e565b50829750879550505050505092915050565b60006020820190508181036000830152611bf28184611b63565b905092915050565b60006040820190508181036000830152611c14818561170f565b9050611c236020830184611752565b9392505050565b611c3381611748565b82525050565b60006060830160008301518482036000860152611c568282611aa3565b9150506020830151611c6b6020860182611c2a565b506040830151611c7e6040860182611adc565b508091505092915050565b60006020820190508181036000830152611ca38184611c39565b905092915050565b611cb481611644565b82525050565b6000602082019050611ccf6000830184611cab565b92915050565b7f4e487b7100000000000000000000000000000000000000000000000000000000600052602260045260246000fd5b60006002820490506001821680611d1c57607f821691505b602082108103611d2f57611d2e611cd5565b5b50919050565b7f4e616d652063616e6e6f7420626520656d707479000000000000000000000000600082015250565b6000611d6b6014836116ba565b9150611d7682611d35565b602082019050919050565b60006020820190508181036000830152611d9a81611d5e565b9050919050565b7f526174696e67206d75737420626520706f736974697665000000000000000000600082015250565b6000611dd76017836116ba565b9150611de282611da1565b602082019050919050565b60006020820190508181036000830152611e0681611dca565b9050919050565b7f456d706c6f796565206e6f7420726567697374657265642e0000000000000000600082015250565b6000611e436018836116ba565b9150611e4e82611e0d565b602082019050919050565b60006020820190508181036000830152611e7281611e36565b9050919050565b600081905092915050565b6000611e8f826116af565b611e998185611e79565b9350611ea98185602086016116cb565b80840191505092915050565b6000611ec18284611e84565b915081905092915050565b7f4e487b7100000000000000000000000000000000000000000000000000000000600052603260045260246000fd5b7f4e487b7100000000000000000000000000000000000000000000000000000000600052601160045260246000fd5b6000611f3582611748565b91507fffffffffffffffffffffffffffffffffffffffffffffffffffffffffffffffff8203611f6757611f66611efb565b5b600182019050919050565b7f4e6f20766572696669636174696f6e207265717565737420666f756e6420667260008201527f6f6d207468697320616464726573730000000000000000000000000000000000602082015250565b6000611fce602f836116ba565b9150611fd982611f72565b604082019050919050565b60006020820190508181036000830152611ffd81611fc1565b9050919050565b60008190508160005260206000209050919050565b6000815461202681611d04565b6120308186611e79565b9450600182166000811461204b576001811461205c5761208f565b60ff1983168652818601935061208f565b61206585612004565b60005b8381101561208757815481890152600182019150602081019050612068565b838801955050505b50505092915050565b60006120a48284612019565b915081905092915050565b600060208201905081810360008301526120c9818461170f565b905092915050565b7f4f6e6c792061646d696e2063616e20706572666f726d2074686973206163746960008201527f6f6e000000000000000000000000000000000000000000000000000000000000602082015250565b600061212d6022836116ba565b9150612138826120d1565b604082019050919050565b6000602082019050818103600083015261215c81612120565b9050919050565b7f4e6f2070656e64696e6720656d706c6f79656520726571756573740000000000600082015250565b6000612199601b836116ba565b91506121a482612163565b602082019050919050565b600060208201905081810360008301526121c88161218c565b905091905056fea264697066735822122011479a054050ccdbf52fae456b61c5ccedd2b47a732b615075ef23b2bf8ccf4964736f6c634300080d0033",
  "immutableReferences": {},
  "source": "// SPDX-License-Identifier: MIT\r\npragma solidity >=0.4.22 <0.9.0;\r\n\r\ncontract SkillVerification {\r\n    struct Certification {\r\n        string name;\r\n        bool isVerified;\r\n        string ipfsHash; // Store the IPFS file hash\r\n    }\r\n\r\n    struct Employee {\r\n        string name;\r\n        uint overallRating;\r\n        Certification[] certifications;\r\n        mapping(address => bool) verificationRequests; // Track verification requests\r\n    }\r\n\r\n    struct EmployeeRequest {\r\n        string name;\r\n        uint overallRating;\r\n        bool isPending;\r\n    }\r\n\r\n    mapping(address => Employee) public employees;\r\n    mapping(address => EmployeeRequest) public employeeRequests;\r\n    address public admin;\r\n\r\n    constructor() {\r\n        admin = msg.sender; // The deployer is the admin\r\n    }\r\n\r\n    modifier onlyAdmin() {\r\n        require(msg.sender == admin, \"Only admin can perform this action\");\r\n        _;\r\n    }\r\n\r\n    // Allow any user to request adding an employee\r\n    function requestAddEmployee(string memory _name, uint _overallRating) public {\r\n        require(bytes(_name).length > 0, \"Name cannot be empty\");\r\n        require(_overallRating > 0, \"Rating must be positive\");\r\n\r\n        // Record the request with pending status\r\n        employeeRequests[msg.sender] = EmployeeRequest({\r\n            name: _name,\r\n            overallRating: _overallRating,\r\n            isPending: true\r\n        });\r\n    }\r\n\r\n    // Admin confirms the employee request\r\n    function confirmAddEmployee(address _employeeAddress) public onlyAdmin {\r\n        EmployeeRequest memory request = employeeRequests[_employeeAddress];\r\n        require(request.isPending, \"No pending employee request\");\r\n\r\n        // Add employee details to the contract\r\n        employees[_employeeAddress].name = request.name;\r\n        employees[_employeeAddress].overallRating = request.overallRating;\r\n\r\n        // Mark the request as confirmed (no longer pending)\r\n        employeeRequests[_employeeAddress].isPending = false;\r\n    }\r\n\r\n    function addCertification(string memory _certificationName, string memory _ipfsHash) public {\r\n        require(bytes(employees[msg.sender].name).length > 0, \"Employee not registered.\");\r\n        employees[msg.sender].certifications.push(Certification(_certificationName, false, _ipfsHash));\r\n    }\r\n\r\n    function requestVerification(address employeeAddress, string memory certificationHash) public {\r\n        // Track the verification request by the user\r\n        employees[employeeAddress].verificationRequests[msg.sender] = true;\r\n\r\n        // Optionally, you can emit an event here for off-chain listeners\r\n        emit VerificationRequested(employeeAddress, certificationHash, msg.sender);\r\n    }\r\n\r\n    function confirmVerification(address requester, string memory certificationHash) public {\r\n        require(employees[msg.sender].verificationRequests[requester], \"No verification request found from this address\");\r\n\r\n        // Mark the certification as verified\r\n        Certification[] storage certifications = employees[msg.sender].certifications;\r\n        for (uint256 i = 0; i < certifications.length; i++) {\r\n            if (keccak256(abi.encodePacked(certifications[i].ipfsHash)) == keccak256(abi.encodePacked(certificationHash))) {\r\n                certifications[i].isVerified = true; // Set the certification as verified\r\n                break;\r\n            }\r\n        }\r\n\r\n        // Remove the verification request\r\n        delete employees[msg.sender].verificationRequests[requester];\r\n    }\r\n\r\n    function verifyCertificationByHash(address employeeAddress, string memory certificationHash) public view returns (bool) {\r\n        Certification[] memory certifications = employees[employeeAddress].certifications;\r\n\r\n        for (uint256 i = 0; i < certifications.length; i++) {\r\n            // Check if the hash of the certification matches the provided hash\r\n            if (keccak256(abi.encodePacked(certifications[i].ipfsHash)) == keccak256(abi.encodePacked(certificationHash))) {\r\n                return certifications[i].isVerified; // Return verification status\r\n            }\r\n        }\r\n        return false; // Certification not found\r\n    }\r\n\r\n    function getCertifications(address _employeeAddress) public view returns (Certification[] memory) {\r\n        return employees[_employeeAddress].certifications;\r\n    }\r\n\r\n    // Get the pending employee request details\r\n    function getEmployeeRequest(address _employeeAddress) public view returns (EmployeeRequest memory) {\r\n        return employeeRequests[_employeeAddress];\r\n    }\r\n    function getVerificationStatus(address employeeAddress, string memory certificationHash) public view returns (bool) {\r\n    // Assuming you have some logic to track the verification status\r\n    Certification[] memory certifications = employees[employeeAddress].certifications;\r\n\r\n    for (uint256 i = 0; i < certifications.length; i++) {\r\n        // Check if the hash of the certification matches the provided hash\r\n        if (keccak256(abi.encodePacked(certifications[i].ipfsHash)) == keccak256(abi.encodePacked(certificationHash))) {\r\n            return certifications[i].isVerified; // Return the verification status\r\n        }\r\n    }\r\n    return false; // Certification not found\r\n}\r\n\r\n    // Event to signal that a verification request has been made\r\n    event VerificationRequested(address indexed employee, string certificationHash, address indexed requester);\r\n}\r\n",
  "sourcePath": "C:\\Users\\sathy\\Desktop\\Blockchain\\contracts\\SkillVerification.sol",
  "compiler": {
    "name": "solc",
    "version": "0.8.13+commit.abaa5c0e.Emscripten.clang"
  },
  "schemaVersion": "3.4.16",
  "updatedAt": "2024-10-20T12:46:10.811Z",
  "devdoc": {
    "kind": "dev",
    "methods": {},
    "version": 1
  },
  "userdoc": {
    "kind": "user",
    "methods": {},
    "version": 1
  }
}