{
  "contractName": "SkillVerification",
  "abi": [
    {
      "inputs": [],
      "stateMutability": "nonpayable",
      "type": "constructor"
    },
    {
      "inputs": [],
      "name": "admin",
      "outputs": [
        {
          "internalType": "address",
          "name": "",
          "type": "address"
        }
      ],
      "stateMutability": "view",
      "type": "function"
    },
    {
      "inputs": [
        {
          "internalType": "address",
          "name": "",
          "type": "address"
        }
      ],
      "name": "employees",
      "outputs": [
        {
          "internalType": "string",
          "name": "name",
          "type": "string"
        },
        {
          "internalType": "uint256",
          "name": "overallRating",
          "type": "uint256"
        }
      ],
      "stateMutability": "view",
      "type": "function"
    },
    {
      "inputs": [
        {
          "internalType": "address",
          "name": "_employeeAddress",
          "type": "address"
        },
        {
          "internalType": "string",
          "name": "_name",
          "type": "string"
        },
        {
          "internalType": "uint256",
          "name": "_overallRating",
          "type": "uint256"
        }
      ],
      "name": "addEmployee",
      "outputs": [],
      "stateMutability": "nonpayable",
      "type": "function"
    },
    {
      "inputs": [
        {
          "internalType": "address",
          "name": "_employeeAddress",
          "type": "address"
        },
        {
          "internalType": "string",
          "name": "_certificationName",
          "type": "string"
        },
        {
          "internalType": "bool",
          "name": "_isVerified",
          "type": "bool"
        },
        {
          "internalType": "string",
          "name": "_ipfsHash",
          "type": "string"
        }
      ],
      "name": "addCertification",
      "outputs": [],
      "stateMutability": "nonpayable",
      "type": "function"
    },
    {
      "inputs": [
        {
          "internalType": "address",
          "name": "_employeeAddress",
          "type": "address"
        }
      ],
      "name": "getCertifications",
      "outputs": [
        {
          "components": [
            {
              "internalType": "string",
              "name": "name",
              "type": "string"
            },
            {
              "internalType": "bool",
              "name": "isVerified",
              "type": "bool"
            },
            {
              "internalType": "string",
              "name": "ipfsHash",
              "type": "string"
            }
          ],
          "internalType": "struct SkillVerification.Certification[]",
          "name": "",
          "type": "tuple[]"
        }
      ],
      "stateMutability": "view",
      "type": "function"
    }
  ],
  "bytecode": "0x608060405234801561000f575f80fd5b503360015f6101000a81548173ffffffffffffffffffffffffffffffffffffffff021916908373ffffffffffffffffffffffffffffffffffffffff160217905550610f688061005d5f395ff3fe608060405234801561000f575f80fd5b5060043610610055575f3560e01c806328f7aa3614610059578063677cc29114610075578063b7291b95146100a5578063d0678947146100c1578063f851a440146100f2575b5f80fd5b610073600480360381019061006e919061080e565b610110565b005b61008f600480360381019061008a919061087a565b610234565b60405161009c9190610a48565b60405180910390f35b6100bf60048036038101906100ba9190610a92565b610408565b005b6100db60048036038101906100d6919061087a565b61056a565b6040516100e9929190610b85565b60405180910390f35b6100fa61060f565b6040516101079190610bc2565b60405180910390f35b60015f9054906101000a900473ffffffffffffffffffffffffffffffffffffffff1673ffffffffffffffffffffffffffffffffffffffff163373ffffffffffffffffffffffffffffffffffffffff161461019f576040517f08c379a000000000000000000000000000000000000000000000000000000000815260040161019690610c4b565b60405180910390fd5b815f808573ffffffffffffffffffffffffffffffffffffffff1673ffffffffffffffffffffffffffffffffffffffff1681526020019081526020015f205f0190816101ea9190610e63565b50805f808573ffffffffffffffffffffffffffffffffffffffff1673ffffffffffffffffffffffffffffffffffffffff1681526020019081526020015f2060010181905550505050565b60605f808373ffffffffffffffffffffffffffffffffffffffff1673ffffffffffffffffffffffffffffffffffffffff1681526020019081526020015f20600201805480602002602001604051908101604052809291908181526020015f905b828210156103fd578382905f5260205f2090600302016040518060600160405290815f820180546102c490610c96565b80601f01602080910402602001604051908101604052809291908181526020018280546102f090610c96565b801561033b5780601f106103125761010080835404028352916020019161033b565b820191905f5260205f20905b81548152906001019060200180831161031e57829003601f168201915b50505050508152602001600182015f9054906101000a900460ff1615151515815260200160028201805461036e90610c96565b80601f016020809104026020016040519081016040528092919081815260200182805461039a90610c96565b80156103e55780601f106103bc576101008083540402835291602001916103e5565b820191905f5260205f20905b8154815290600101906020018083116103c857829003601f168201915b50505050508152505081526020019060010190610294565b505050509050919050565b60015f9054906101000a900473ffffffffffffffffffffffffffffffffffffffff1673ffffffffffffffffffffffffffffffffffffffff163373ffffffffffffffffffffffffffffffffffffffff1614610497576040517f08c379a000000000000000000000000000000000000000000000000000000000815260040161048e90610c4b565b60405180910390fd5b5f808573ffffffffffffffffffffffffffffffffffffffff1673ffffffffffffffffffffffffffffffffffffffff1681526020019081526020015f206002016040518060600160405280858152602001841515815260200183815250908060018154018082558091505060019003905f5260205f2090600302015f909190919091505f820151815f01908161052c9190610e63565b506020820151816001015f6101000a81548160ff02191690831515021790555060408201518160020190816105619190610e63565b50505050505050565b5f602052805f5260405f205f91509050805f01805461058890610c96565b80601f01602080910402602001604051908101604052809291908181526020018280546105b490610c96565b80156105ff5780601f106105d6576101008083540402835291602001916105ff565b820191905f5260205f20905b8154815290600101906020018083116105e257829003601f168201915b5050505050908060010154905082565b60015f9054906101000a900473ffffffffffffffffffffffffffffffffffffffff1681565b5f604051905090565b5f80fd5b5f80fd5b5f73ffffffffffffffffffffffffffffffffffffffff82169050919050565b5f61066e82610645565b9050919050565b61067e81610664565b8114610688575f80fd5b50565b5f8135905061069981610675565b92915050565b5f80fd5b5f80fd5b5f601f19601f8301169050919050565b7f4e487b71000000000000000000000000000000000000000000000000000000005f52604160045260245ffd5b6106ed826106a7565b810181811067ffffffffffffffff8211171561070c5761070b6106b7565b5b80604052505050565b5f61071e610634565b905061072a82826106e4565b919050565b5f67ffffffffffffffff821115610749576107486106b7565b5b610752826106a7565b9050602081019050919050565b828183375f83830152505050565b5f61077f61077a8461072f565b610715565b90508281526020810184848401111561079b5761079a6106a3565b5b6107a684828561075f565b509392505050565b5f82601f8301126107c2576107c161069f565b5b81356107d284826020860161076d565b91505092915050565b5f819050919050565b6107ed816107db565b81146107f7575f80fd5b50565b5f81359050610808816107e4565b92915050565b5f805f606084860312156108255761082461063d565b5b5f6108328682870161068b565b935050602084013567ffffffffffffffff81111561085357610852610641565b5b61085f868287016107ae565b9250506040610870868287016107fa565b9150509250925092565b5f6020828403121561088f5761088e61063d565b5b5f61089c8482850161068b565b91505092915050565b5f81519050919050565b5f82825260208201905092915050565b5f819050602082019050919050565b5f81519050919050565b5f82825260208201905092915050565b5f5b838110156109055780820151818401526020810190506108ea565b5f8484015250505050565b5f61091a826108ce565b61092481856108d8565b93506109348185602086016108e8565b61093d816106a7565b840191505092915050565b5f8115159050919050565b61095c81610948565b82525050565b5f606083015f8301518482035f86015261097c8282610910565b91505060208301516109916020860182610953565b50604083015184820360408601526109a98282610910565b9150508091505092915050565b5f6109c18383610962565b905092915050565b5f602082019050919050565b5f6109df826108a5565b6109e981856108af565b9350836020820285016109fb856108bf565b805f5b85811015610a365784840389528151610a1785826109b6565b9450610a22836109c9565b925060208a019950506001810190506109fe565b50829750879550505050505092915050565b5f6020820190508181035f830152610a6081846109d5565b905092915050565b610a7181610948565b8114610a7b575f80fd5b50565b5f81359050610a8c81610a68565b92915050565b5f805f8060808587031215610aaa57610aa961063d565b5b5f610ab78782880161068b565b945050602085013567ffffffffffffffff811115610ad857610ad7610641565b5b610ae4878288016107ae565b9350506040610af587828801610a7e565b925050606085013567ffffffffffffffff811115610b1657610b15610641565b5b610b22878288016107ae565b91505092959194509250565b5f82825260208201905092915050565b5f610b48826108ce565b610b528185610b2e565b9350610b628185602086016108e8565b610b6b816106a7565b840191505092915050565b610b7f816107db565b82525050565b5f6040820190508181035f830152610b9d8185610b3e565b9050610bac6020830184610b76565b9392505050565b610bbc81610664565b82525050565b5f602082019050610bd55f830184610bb3565b92915050565b7f4f6e6c792061646d696e2063616e20706572666f726d207468697320616374695f8201527f6f6e000000000000000000000000000000000000000000000000000000000000602082015250565b5f610c35602283610b2e565b9150610c4082610bdb565b604082019050919050565b5f6020820190508181035f830152610c6281610c29565b9050919050565b7f4e487b71000000000000000000000000000000000000000000000000000000005f52602260045260245ffd5b5f6002820490506001821680610cad57607f821691505b602082108103610cc057610cbf610c69565b5b50919050565b5f819050815f5260205f209050919050565b5f6020601f8301049050919050565b5f82821b905092915050565b5f60088302610d227fffffffffffffffffffffffffffffffffffffffffffffffffffffffffffffffff82610ce7565b610d2c8683610ce7565b95508019841693508086168417925050509392505050565b5f819050919050565b5f610d67610d62610d5d846107db565b610d44565b6107db565b9050919050565b5f819050919050565b610d8083610d4d565b610d94610d8c82610d6e565b848454610cf3565b825550505050565b5f90565b610da8610d9c565b610db3818484610d77565b505050565b5b81811015610dd657610dcb5f82610da0565b600181019050610db9565b5050565b601f821115610e1b57610dec81610cc6565b610df584610cd8565b81016020851015610e04578190505b610e18610e1085610cd8565b830182610db8565b50505b505050565b5f82821c905092915050565b5f610e3b5f1984600802610e20565b1980831691505092915050565b5f610e538383610e2c565b9150826002028217905092915050565b610e6c826108ce565b67ffffffffffffffff811115610e8557610e846106b7565b5b610e8f8254610c96565b610e9a828285610dda565b5f60209050601f831160018114610ecb575f8415610eb9578287015190505b610ec38582610e48565b865550610f2a565b601f198416610ed986610cc6565b5f5b82811015610f0057848901518255600182019150602085019450602081019050610edb565b86831015610f1d5784890151610f19601f891682610e2c565b8355505b6001600288020188555050505b50505050505056fea2646970667358221220e4098193e89a2d68748fa77bf18199d2b6046d1d454b7cf4288c2431cc44590e64736f6c63430008150033",
  "immutableReferences": {},
  "source": "// contracts/SkillVerification.sol\r\n// SPDX-License-Identifier: MIT\r\npragma solidity ^0.8.0;\r\n\r\ncontract SkillVerification {\r\n    struct Certification {\r\n        string name;\r\n        bool isVerified;\r\n        string ipfsHash; // Store the IPFS file hash\r\n    }\r\n\r\n    struct Employee {\r\n        string name;\r\n        uint overallRating;\r\n        Certification[] certifications;\r\n    }\r\n\r\n    mapping(address => Employee) public employees;\r\n    address public admin;\r\n\r\n    constructor() {\r\n        admin = msg.sender; // The deployer is the admin\r\n    }\r\n\r\n    modifier onlyAdmin() {\r\n        require(msg.sender == admin, \"Only admin can perform this action\");\r\n        _;\r\n    }\r\n\r\n    function addEmployee(address _employeeAddress, string memory _name, uint _overallRating) public onlyAdmin {\r\n        employees[_employeeAddress].name = _name;\r\n        employees[_employeeAddress].overallRating = _overallRating;\r\n    }\r\n\r\n    function addCertification(\r\n        address _employeeAddress,\r\n        string memory _certificationName,\r\n        bool _isVerified,\r\n        string memory _ipfsHash\r\n    ) public onlyAdmin { // Restricting this function to admin for now\r\n        employees[_employeeAddress].certifications.push(Certification(_certificationName, _isVerified, _ipfsHash));\r\n    }\r\n\r\n    function getCertifications(address _employeeAddress) public view returns (Certification[] memory) {\r\n        return employees[_employeeAddress].certifications;\r\n    }\r\n}\r\n",
  "sourcePath": "C:\\Users\\sathy\\Desktop\\Blockchain\\contracts\\SkillVerification.sol",
  "compiler": {
    "name": "solc",
    "version": "0.8.21+commit.d9974bed.Emscripten.clang"
  },
  "schemaVersion": "3.4.16",
  "updatedAt": "2024-10-15T15:31:38.462Z",
  "devdoc": {
    "kind": "dev",
    "methods": {},
    "version": 1
  },
  "userdoc": {
    "kind": "user",
    "methods": {},
    "version": 1
  }
}